:020000040000FA
:100000000C9480020C94A8020C94A8020C94A802F0
:100010000C94A8020C94A8020C94A8020C94A802B8
:100020000C94A8020C94A8020C94A8020C94A802A8
:100030000C94A8020C94A8020C94A8020C94A80298
:100040000C94F9090C94A8020C94C7090C94A1090A
:100050000C94A8020C94A8020C94A8020C94A80278
:100060000C94A8020C94A8020000000024002700B1
:100070002A0000000000250028002B0000000000DE
:1000800023002600290000000008000201000003F0
:10009000040700000000000000004F4B0D0A00683C
:1000A000756D53746F70203C4E554D4245523E2045
:1000B0002020202020202020202D2D20736574203A
:1000C00048756D69646974792C204E554D424552CE
:1000D00020696E2072616E676520302D3130302CC2
:1000E000207768656E2046414E206265636F6D65BE
:1000F000206F66660D0A0068756D4D6178203C4E74
:10010000554D4245523E20202020202020202020F6
:10011000202D2D20736574206D61782048756D69E0
:10012000646974792C204E554D42455220696E20E9
:1001300072616E676520302D3130302C2069662069
:100140006269676765722046414E206F6E0D0A0036
:100150006C6564206F6666202020202020202020EF
:10016000202020202020202020202D2D2073657489
:10017000206D616E75616C79204C4544206F666618
:100180000D0A006C6564206F6E2020202020202046
:10019000202020202020202020202020202D2D2045
:1001A000736574206D616E75616C79204C454420D7
:1001B0006F6E0D0A0066616E203C4E554D424552F1
:1001C0003E206F6666202020202020202020202D29
:1001D0002D207365742066616E206279204E554D26
:1001E000424552206F66660D0A0066616E203C4EE5
:1001F000554D4245523E206F6E2020202020202069
:10020000202020202D2D207365742066616E2062D1
:1002100079204E554D424552206F6E0D0A0074658F
:100220006D7065726174757265206F66662020203E
:1002300020202020202020202D2D20736574207464
:10024000656D70657261747572652073656E736F2C
:100250007273204F46460D0A0074656D70657261B9
:1002600074757265206F6E202020202020202020B1
:100270002020202D2D207365742074656D706572AB
:1002800061747572652073656E736F72204F4E0DC9
:100290000A00627574746F6E206E756C6C2020207D
:1002A0002020202020202020202020202D2D2073E1
:1002B000657420425554544F4E20746F204E4F4E5B
:1002C000450D0A006D6F746F7220656E64202020EA
:1002D00020202020202020202020202020202D2D04
:1002E0002073746F70206D6F746F72206D6F766500
:1002F0000D0A006D6F746F7220646F776E2020207E
:10030000202020202020202020202020202D2D20D3
:100310006D6F766520646F776E0D0A006D6F746F78
:1003200072207570202020202020202020202020D6
:100330002020202020202D2D206D6F7665207570C7
:100340000D0A0074696D65203C4E554D4245523E84
:10035000202020202020202020202020202D2D2083
:1003600073657420696E74206E756D6265722066A7
:100370006F722074696D652064656C6179206672A6
:100380006F6D2072616E676520302D313032330D14
:100390000A00696E74656E7369747920444F574E14
:1003A000203C4E554D4245523E2020202D2D20739D
:1003B000657420696E74206E756D62657220666F5B
:1003C0007220696E74656E736974792066726F6DE0
:1003D0002072616E676520302D313032330D0A0096
:1003E000696E74656E73697479205550203C4E5562
:1003F0004D4245523E20202020202D2D2073657433
:1004000020696E74206E756D62657220666F722051
:10041000696E74656E736974792066726F6D20728F
:10042000616E676520302D313032330D0A00696E00
:10043000666F202020202020202020202020202027
:1004400020202020202020202D2D207072696E7405
:1004500020696E666F2061626F75742064657669CD
:1004600063650D0A0073656E736F72202020202073
:100470002020202020202020202020202020202D6F
:100480002D2072657475726E2061637475616C20C5
:1004900076616C7565206F6620696E74656E736930
:1004A00074790D0A0068656C7020202020202020BF
:1004B0002020202020202020202020202020202D2F
:1004C0002D207072696E742068656C70206D656E89
:1004D000750D0A003E00040404040404040402022E
:1004E00002020202030303030303010204081020B3
:1004F0004080010204081020010204081020430A71
:1005000011241FBECFEFD8E0DEBFCDBF25E0A8E3AA
:10051000B4E001C01D92AD31B207E1F714E0A0E0F4
:10052000B1E0E4E9F0E302C005900D92A833B10711
:10053000D9F712E0C0E8D2E004C02197FE010E9482
:100540004716CF37D107C9F70E94AB0A0C94481859
:100550000C940000AF92BF92CF92DF92EF92FF9285
:100560000F931F93CF93DF936C017B018B01040FDB
:10057000151FEB015E01AE18BF08C017D10759F077
:100580006991D601ED91FC910190F081E02DC601B9
:100590000995892B79F7C501DF91CF911F910F91B3
:1005A000FF90EF90DF90CF90BF90AF900895FC0147
:1005B000538D448D252F30E0842F90E0821B930BC8
:1005C000541710F0CF96089501970895FC01918D6E
:1005D000828D981761F0A28DAE0FBF2FB11D5D9671
:1005E0008C91928D9F5F9F73928F90E008958FEF13
:1005F0009FEF0895FC01918D828D981731F0828DC7
:10060000E80FF11D858D90E008958FEF9FEF08951D
:10061000FC01918D228D892F90E0805C9F4F821B81
:1006200091098F739927089586E594E00E94080345
:1006300021E0892B09F420E0822F089580E090E0EA
:10064000892B29F00E94140381110C940000089555
:10065000FC01A48DA80FB92FB11DA35ABF4F2C9137
:10066000848D90E001968F739927848FA689B7892E
:100670002C93A089B1898C91837080648C93938D25
:10068000848D981306C00288F389E02D80818F7DC8
:1006900080830895EF92FF920F931F93CF93DF9380
:1006A000EC0181E0888F9B8D8C8D98131AC0E889AE
:1006B000F989808185FF15C09FB7F894EE89FF897D
:1006C0006083E889F98980818370806480839FBF1B
:1006D00081E090E0DF91CF911F910F91FF90EF901B
:1006E0000895F62E0B8D10E00F5F1F4F0F7311272B
:1006F000E02E8C8D8E110CC00FB607FCFACFE88966
:10070000F989808185FFF5CFCE010E942803F1CFC2
:10071000EB8DEC0FFD2FF11DE35AFF4FF0829FB7D9
:10072000F8940B8FEA89FB8980818062CFCFCF93C9
:10073000DF93EC01888D8823B9F0AA89BB89E88909
:10074000F9898C9185FD03C0808186FD0DC00FB6AF
:1007500007FCF7CF8C9185FFF2CF808185FFEDCF2D
:10076000CE010E942803E9CFDF91CF910895833015
:1007700081F028F4813099F08230A9F00895873013
:10078000A9F08830C9F08430B1F4809180008F7D69
:1007900003C0809180008F7780938000089584B596
:1007A0008F7784BD089584B58F7DFBCF8091B00095
:1007B0008F778093B00008958091B0008F7DF9CF3E
:1007C000CF93DF93282F30E0F901EA57FF4F849150
:1007D000F901E651FB4FD491F901EA52FB4FC49164
:1007E000CC23A1F081110E94B703EC2FF0E0EE0FB3
:1007F000FF1FE458FF4FA591B491EC91ED2381E0E8
:1008000090E009F480E0DF91CF91089580E090E0DE
:10081000FACF1F93CF93DF93282F30E0F901EA57E7
:10082000FF4F8491F901E651FB4FD491F901EA524F
:10083000FB4FC491CC23A9F0162F81110E94B7035E
:10084000EC2FF0E0EE0FFF1FEE58FF4FA591B49193
:100850008FB7F894EC91111108C0D095DE23DC938A
:100860008FBFDF91CF911F910895DE2BF8CFCF93EB
:10087000DF9390E0FC01E651FB4F24918A529B4F9D
:10088000FC0184918823C9F090E0880F991FFC0136
:10089000E859FF4FA591B491FC01EE58FF4FC59167
:1008A000D49161110DC09FB7F8948C91209582234B
:1008B0008C938881282328839FBFDF91CF9108954F
:1008C000623051F49FB7F8943C91822F8095832336
:1008D0008C93E8812E2BEFCF8FB7F894EC912E2BD1
:1008E0002C938FBFEACF8E50806480937C008091E0
:1008F0007A00806480937A0080917A0086FDFCCF34
:10090000809178009091790008953FB7F894809194
:100910003D0490913E04A0913F04B091400426B55F
:10092000A89B05C02F3F19F00196A11DB11D3FBF27
:10093000BA2FA92F982F8827BC01CD01620F711DF6
:10094000811D911D42E0660F771F881F991F4A95F0
:10095000D1F708958F929F92AF92BF92CF92DF927C
:10096000EF92FF924B015C010E9485046B017C01B8
:100970000E9485046C197D098E099F09683E7340A9
:1009800081059105A8F321E0821A9108A108B10818
:1009900088EEC80E83E0D81EE11CF11C811491047E
:1009A000A104B10429F7FF90EF90DF90CF90BF90A2
:1009B000AF909F908F9008952FB7F894609139046D
:1009C00070913A0480913B0490913C042FBF0895AC
:1009D0000F931F930E94DC0460935E0470935F0486
:1009E000809360049093610486E594E00E94E6029F
:1009F00097FF1DC00E94DC0400915E0410915F040B
:100A00002091600430916104601B710B820B930B89
:100A100000915A0410915B0420915C0430915D04B4
:100A20006017710782079307F8F28FEF9FEF1F910E
:100A30000F910895CF92DF92EF92FF92CF93DF93C1
:100A4000DC011796CC911797D0E06111DC2F189636
:100A50002C91189730E0220F331F24583F4F50E05D
:100A600040E0F90185919491FC01F080BA0190E099
:100A700080E0EF2DEC23ED1310C04F5F5F4F1D960C
:100A8000CD90DD90ED90FC9050976C157D058E0516
:100A90009F0538F36FEF7FEFCB01DF91CF91FF9090
:100AA000EF90DF90CF9008958F929F92AF92BF9278
:100AB000CF92DF92EF92FF920F931F93CF93DF932A
:100AC000CDB7DEB7C054D1400FB6F894DEBF0FBE2D
:100AD000CDBF8C010E94DC04F801C184D284E38480
:100AE000F4849B01AC012C193D094E095F09690191
:100AF0007A0130EDC31637E0D306E104F104A8F41F
:100B00008189C05CDE4F0FB6F894DEBF0FBECDBF4B
:100B1000DF91CF911F910F91FF90EF90DF90CF90D9
:100B2000BF90AF909F908F90089561877287838761
:100B300094871482138212821182108262E085816E
:100B40000E94370461E070E080E090E00E94AA0417
:100B500061E0F80185810E94370460E0F801858139
:100B60000E940904F80186818551823028F58BE2C4
:100B700091E10197F1F762E0F80185810E94370465
:100B8000F801828990E08230910538F0880F991F32
:100B9000880F991F05970197F1F7F89460E0C80155
:100BA0000E941A056F3F7F4F8F4F9F4F61F4F801EE
:100BB000118A789480E0A5CF64E170E080E090E055
:100BC0000E94AA04D8CF61E0C8010E941A056F3FB5
:100BD0007F4F8F4F9F4F59F39E012F5F3F4F7901FA
:100BE0005E013FEBA31A3EEFB30A670160E0C80164
:100BF0000E941A05F601608371838283938361E00A
:100C0000C8010E941A05F601648375838683978361
:100C1000F8E0CF0ED11CCA14DB0441F7789430E021
:100C200020E0F70180809180A280B38044815581CB
:100C300066817781FFEF8F169F06AF06BF0631F002
:100C40004F3F8FEF58076807780719F4F801118AAA
:100C5000B1CFF90183E0F595E7958A95E1F7E00FCB
:100C6000F11F8081880F84169506A606B706F0F05E
:100C700080832F5F3F4FF8E0EF0EF11C28323105E3
:100C800081F6F801448120818181280F3327331FA9
:100C90008281280F311D8381820F932F911D992707
:100CA0004817190699F681E0818B2BCF8160E0CF40
:100CB000CF92DF92EF92FF921F93CF93DF93EC01DD
:100CC0000E945405882339F08E818C3009F44DC080
:100CD00038F48B30E1F060E070E080EC9FE73DC0DD
:100CE00085518230C0F71A81612F70E0762F662718
:100CF00066277F778B81682B90E080E00E94A113AC
:100D00002DEC3CEC4CEC5DE30E94021448C06A817F
:100D100070E090E080E00E94A1136B017C01CB8128
:100D2000C7FF0AC0AC019B0160E070E080E89FEB68
:100D30000E940D156B017C01CF706C2F70E090E06C
:100D400080E00E94A3132DEC3CEC4CEC5DE30E9490
:100D50000214A70196010E940E15DF91CF911F91F9
:100D6000FF90EF90DF90CF9008951A81612F70E08F
:100D700090E080E00E94A1136B017C016B816F7099
:100D800070E090E080E00E94A3132DEC3CEC4CEC72
:100D90005DE30E940214A70196010E940E1517FF41
:100DA000DCCF9058DACFCF92DF92EF92FF92CF93C1
:100DB000DF93EC010E945405882341F08E818B3033
:100DC00028F08D3040F08551823030F160E070E0E5
:100DD00080EC9FE71AC0698170E090E080E00E949B
:100DE000A3132DEC3CEC4CEC5DE30E9402146B0170
:100DF0007C01688170E090E080E00E94A3139B0179
:100E0000AC01C701B6010E940E15DF91CF91FF9092
:100E1000EF90DF90CF9008956881798176276727DA
:100E2000762790E080E00E94A1132DEC3CEC4CEC86
:100E30005DE30E940214E9CFFC0101900020E9F774
:100E40003197AF01481B590BBC0186E594E00C9427
:100E5000AA028F929F92AF92BF920F931F93CF934C
:100E6000DF93CDB7DEB7A1970FB6F894DEBF0FBE04
:100E7000CDBF19A2423008F44AE08E010F5D1F4F2A
:100E8000842E912CB12CA12CA50194010E94251631
:100E9000E62FB901CA01EA30F4F4E05DD801EE931F
:100EA0008D01232B242B252B79F790E080E01097E0
:100EB00019F0CD010E941C07A1960FB6F894DEBF71
:100EC0000FBECDBFDF91CF911F910F91BF90AF901B
:100ED0009F908F900895E95CE1CFCF92DF92EF92DF
:100EE000FF92CF93DF936B017C016DE286E594E086
:100EF0000E944A03EC0166277727CB016C197D0914
:100F00008E099F094AE00E9429078C0F9D1FDF91DF
:100F1000CF91FF90EF90DF90CF900895CF93DF9324
:100F20000E941C07EC018CE191E00E941C078C0FD1
:100F30009D1FDF91CF9108950C941C07CF93DF93F1
:100F4000BC0190E080E04AE00E942907EC018CE1BE
:100F500091E00E941C078C0F9D1FDF91CF91089597
:100F6000CF93DF93BC01990F880B990B97FF0CC0AF
:100F70000E946D07EC018CE191E00E941C078C0F30
:100F80009D1FDF91CF9108954AE00E942907F2CF7B
:100F9000BC01990F880B990B97FD0C946D074AE0E3
:100FA0000C9429074F925F926F927F928F929F923B
:100FB000AF92BF92CF92DF92EF92FF926B017C01D2
:100FC000AC019B010E942016882381F08FE191E003
:100FD000FF90EF90DF90CF90BF90AF909F908F9059
:100FE0007F906F905F904F900C941C0746015701C3
:100FF000E894B7F82FEF3FEF4FE75FE7C501B40183
:101000000E94201681110DC02FEF3FEF4FE75FE7E1
:10101000C501B4010E949C1318161CF483E291E0F0
:10102000D7CF2FEF3FEF4FE75FE4C701B6010E9434
:101030001B1618161CF487E291E0CACF2FEF3FEF82
:101040004FE75FECC701B6010E949C1387FDF3CF09
:1010500020E030E0A901C701B6010E949C13B12C29
:10106000A12C87FF0AC06DE286E594E00E944A0346
:101070005C01F7FAF094F7F8F0942AE037ED43EAD0
:101080005BE3C701B6010E940E152B013C010E94D3
:10109000EC156B017C010E94A1139B01AC01C30103
:1010A000B2010E940D152B013C014AE0C701B601B7
:1010B0000E9429077C01EA0CFB1C6EE286E594E0A5
:1010C0000E944A03E80EF91E20E030E040E251E4BD
:1010D000C301B2010E9402142B013C010E94EC15D5
:1010E0004B01B12CA12C4AE0C501B4010E94290793
:1010F000E80EF91EC501B4010E94A1139B01AC01C9
:10110000C301B2010E940D1520E030E040E251E43D
:101110000E9402140E94EC1590E080E04AE00E94D8
:1011200029078E0D9F1DFF90EF90DF90CF90BF900D
:10113000AF909F908F907F906F905F904F900895A9
:10114000FC0180819181009711F00C94571360E0AD
:1011500070E0CB010895FC0124813581232B39F403
:1011600021E0FB018081882349F020E007C08081D5
:1011700091810E94381821E0892BB9F7822F0895B8
:101180000F931F93CF93DF93EC0188819981009790
:1011900059F02A813B812617370730F081E0DF9133
:1011A000CF911F910F9108958B016F5F7F4F0E9428
:1011B0007217009759F0998388831B830A832C81C7
:1011C0003D81232B59F7FC011082E8CF80E0E7CF67
:1011D000CF93DF93EC0188819981009711F00E94F1
:1011E000E916198218821D821C821B821A82DF91E5
:1011F000CF910895CF93DF93EC0170E060E00E94FF
:10120000C008811105C0CE01DF91CF910C94E80890
:101210001D821C826EE171E088819981DF91CF91FE
:101220000C9441189F92AF92BF92CF92DF92EF92AF
:10123000FF920F931F93CF93DF93EC016B015A0141
:1012400079012417350720F48B2D5901E42EF82E4F
:10125000198218821B821A821D821C82CE010E9472
:10126000FA08D60114960D911C91A016B10658F5F6
:10127000E016F10608F48701D601ED91FC91119773
:10128000E00FF11F90801082ED90FC90EA0CFB1CA7
:10129000E114F10471F0F70101900020E9F73197B2
:1012A0005F01AE18BF08B501CE010E94C0088111D0
:1012B00017C0CE010E94E808F60180819181080FD5
:1012C000191FD8019C92CE01DF91CF911F910F91F0
:1012D000FF90EF90DF90CF90BF90AF909F900895D8
:1012E000BD82AC82B701888199810E944118E4CF08
:1012F000FC0180819181009711F00C94E91608950A
:101300000C94C8140C94C014FF920F931F93CF93A6
:10131000DF938C010E947E13F82ED0E0C0E0CF1541
:1013200050F4F801EC0FFD1F649186E594E00E94F3
:101330004A032196F4CFDF91CF911F910F91FF9037
:1013400008951F920F920FB60F9211242F933F937F
:101350004F935F936F937F938F939F93AF93BF93BD
:10136000EF93FF9386E594E00E942803FF91EF91AD
:10137000BF91AF919F918F917F916F915F914F91AD
:101380003F912F910F900FBE0F901F9018951F92B5
:101390000F920FB60F9211242F938F939F93EF9379
:1013A000FF93E0916604F09167048081E0916C0402
:1013B000F0916D0482FD1BC0908180916F048F5F5E
:1013C0008F7320917004821741F0E0916F04F0E078
:1013D000EA5AFB4F958F80936F04FF91EF919F9195
:1013E0008F912F910F900FBE0F901F9018958081B5
:1013F000F4CF1F920F920FB60F9211242F933F93A9
:101400008F939F93AF93BF938091390490913A0447
:10141000A0913B04B0913C043091380423E0230FA9
:101420002D3758F50196A11DB11D209338048093E6
:10143000390490933A04A0933B04B0933C04809108
:101440003D0490913E04A0913F04B0914004019668
:10145000A11DB11D80933D0490933E04A0933F04D1
:10146000B0934004BF91AF919F918F913F912F9185
:101470000F900FBE0F901F90189526E8230F02962D
:10148000A11DB11DD2CFE6E5F4E01382128288EEF1
:1014900093E0A0E0B0E084839583A683B7838EE0D9
:1014A00091E09183808385EC90E09587848784EC3C
:1014B00090E09787868780EC90E0918B808B81EC21
:1014C00090E0938B828B82EC90E0958B848B86EC02
:1014D00090E0978B868B118E128E138E148EA6E061
:1014E000B5E088E015968C93159786E116968C9357
:1014F0001697E2EFF4E0E4911796EC931797EEED70
:10150000F4E0E4911896EC93189740E85EE360E00D
:1015100070E01D964D935D936D937C935097A3EF70
:10152000B4E099E015969C93159716968C931697B0
:10153000E3EFF4E0E4911796EC931797EFEDF4E006
:10154000E4911896EC9318971D964D935D936D93C7
:101550007C9350970895CF93DF93CDB7DEB7609714
:101560000FB6F894DEBF0FBECDBF789484B582600D
:1015700084BD84B5816084BD85B5826085BD85B537
:10158000816085BD80916E00816080936E001092B5
:101590008100809181008260809381008091810030
:1015A00081608093810080918000816080938000C1
:1015B0008091B10084608093B1008091B00081601F
:1015C0008093B00080917A00846080937A0080914B
:1015D0007A00826080937A0080917A0081608093A3
:1015E0007A0080917A00806880937A001092C1001E
:1015F00068EE73E080E090E00E94AA04E091660447
:10160000F091670482E08083E0916204F0916304CA
:101610001082E0916404F09165048FEC8083109255
:101620006E04E0916A04F0916B0486E08083E0919F
:101630006804F0916904808180618083E09168048E
:10164000F0916904808188608083E0916804F09162
:101650006904808180688083E0916804F091690466
:1016600080818F7D80838BE291E00E948E070E94B3
:10167000DC0460934104709342048093430490938C
:10168000440461E083E00E94370461E082E00E944C
:10169000370461E084E00E94370461E085E00E9445
:1016A000370461E086E00E94370461E087E00E9431
:1016B000370460E08BE00E94370460E08AE00E941B
:1016C000370460E08DE00E94370460E08CE00E9407
:1016D000370460E083E00E94090460E082E00E9439
:1016E000090460E085E00E94090460E086E00E9451
:1016F000090460E087E00E94090490E080E00E9415
:101700008209E82EF12CFE2CEE24F0925504E09292
:10171000540481E090E00E9482098E0D9F2D911D5E
:10172000909355048093540487E090E00E948209CE
:10173000E82EF12CFE2CEE24F0925304E092520499
:1017400088E090E00E9482098E0D9F2D911D90935C
:1017500053048093520482E090E00E948209E82EB4
:10176000F12CFE2CEE24F0925004E0924F0483E022
:1017700090E00E9482098E0D9F2D911D9093500440
:1017800080934F0440E355E7849F9001859F300D7F
:10179000949F300D1124C901B0E0A0E0809346046D
:1017A00090934704A0934804B093490484E090E0E8
:1017B0000E94820980934E0485E090E00E94820995
:1017C00080934B0486E090E00E94820980934A0453
:1017D00089E090E00E94820980934D048AE090E0C5
:1017E0000E94820980934C0462E080910B050E9464
:1017F00037040E94DC04605D7740810991096093A1
:101800000F0570931005809311059093120517E34F
:101810001093180562E08091F8040E9437040E943A
:10182000DC04605D7740810991096093FC0470934A
:10183000FD048093FE049093FF0410930505222479
:101840002394312C11E086E594E00E940803892B53
:1018500009F4F3C418861F821A8619861C861B8613
:10186000CE0107960E94FA080E94E80497FD1CC06A
:1018700089831A82EB84FC842FEFE21AF20AB70103
:10188000CE0107960E94C008882371F32F81388506
:101890008B859C85BE016F5F7F4F820F931F0E94D7
:1018A0004118FC86EB86E0CF84ED94E00E94840929
:1018B0004B855C856F81788586E594E00E94AA025D
:1018C0008CE191E00E941C0761E371E0CE01079674
:1018D0000E94AB08811109C067E371E0CE01079651
:1018E0000E94AB08882309F449C085EA94E00E946D
:1018F000840985E694E00E9484098EE294E00E94C7
:10190000840980EE93E00E94840982E993E00E94BA
:10191000840983E493E00E9484098CE193E00E94AF
:10192000840983EF92E00E94840984EC92E00E9493
:10193000840982E992E00E94840989E592E00E948C
:1019400084098EE192E00E9484098AEE91E00E946F
:10195000840985EB91E00E94840983E891E00E946C
:10196000840980E591E00E94840987EF90E00E945D
:1019700084098FE990E00E948409D1C16CE371E091
:10198000CE0107960E94AB08811177C064E471E034
:10199000CE0107960E94AB0881116FC06BE471E025
:1019A000CE0107960E94AB0881116FC061E571E01E
:1019B000CE0107960E94AB08811167C02CE030E091
:1019C00050E040E0BE01695F7F4FCE0101960E946A
:1019D000120966E571E0CE0101960E94AB08F82E6F
:1019E000CE0101960E947809F110C3C12EE030E0CB
:1019F00050E040E0BE01695F7F4FCE0101960E943A
:101A0000120966EE72E0CE0101960E94AB08F82E34
:101A1000CE0101960E947809FF2009F4DAC12B85D6
:101A20003C854FE050E0BE01695F7F4FCE010196DB
:101A30000E941209CE0101960E94A0086B01CE01FE
:101A400001960E947809C11454E0D50624F0CC24F4
:101A5000CA9433E0D32ED7FE02C0D12CC12CD09231
:101A60005304C09252046D2D87E090E00E948009DB
:101A70006091520488E090E0A9C181E10E94730462
:101A80000E94B0078AE990E076CF83E691E00E9459
:101A90009C0781E10E9473040E94B00783E791E0F4
:101AA0000E949C0780915404909155040E949E07C7
:101AB00083E891E00E949C07809152049091530426
:101AC0000E949E0783E991E00E949C078091020199
:101AD000909103018130910509F426C108F429C1D0
:101AE0008230910509F428C1039709F428C181EBDC
:101AF00091E00E949C07809100019091010181304A
:101B0000910509F424C108F41DC1029709F422C10A
:101B100084ED91E00E949C0780915104813009F08E
:101B20001CC18BEA92E00E948E0784EE91E00E9435
:101B30009C0760914F047091500490E080E04AE06F
:101B40000E94290784EF91E00E948E0780914E0445
:101B5000813009F005C186E095E00E94D3062B0193
:101B60003C0186E095E00E9458064B015C0183EF42
:101B700094E00E94D3066D877E878F87988B83EFD2
:101B800094E00E9458066B017C0181E092E00E9483
:101B90009C07C501B4010E94D20781E192E00E9436
:101BA0008E0786E192E00E949C07C301B2010E9469
:101BB000D20786E292E00E948E0789E292E00E94BC
:101BC0009C07C701B6010E94D20781E192E00E9402
:101BD0008E0789E392E00E949C076D857E858F8544
:101BE00098890E94D20786E292E00E948E07A301A4
:101BF0009201C301B2010E94201681112AC0A501E1
:101C00009401C501B4010E942016811122C0A301D4
:101C1000920160E070E088EC92E40E940D1520E0F3
:101C200030E040EA50E40E947A159B01AC01C50106
:101C3000B4010E940D154B015C0189E492E00E9401
:101C40009C07C501B4010E94D20781E192E00E9485
:101C50008E072D853E854F855889CA01B9010E949E
:101C6000201681112CC0A7019601C701B6010E9460
:101C70002016811124C02D853E854F85588960E04E
:101C800070E088EC92E40E940D1520E030E040EA1C
:101C900050E40E947A159B01AC01C701B6010E9475
:101CA0000D156B017C0189E592E00E949C07C7013C
:101CB000B6010E94D20781E192E00E948E0789E678
:101CC00092E00E949C0760914D0470E090E080E0FB
:101CD0004AE00E94290786E292E00E948E0789E787
:101CE00092E00E949C0760914C0470E090E080E0DC
:101CF0004AE00E94290786E292E00E948E078091C6
:101D00004B04813081F58CE992E00E948E0780912E
:101D10004A04813059F581EC92E00E948E07CE0191
:101D200007960E9478098FCD80EF92E00E948E077F
:101D3000DECE80E691E0FACF83EA91E0F7CF89EA40
:101D400091E0F4CF81EC91E00E948E07E1CE86EC29
:101D500091E0FACF8DEC91E0F7CF8DEB92E0E3CEFE
:101D600089E892E0CACF8EEA92E0CFCF83ED92E08D
:101D7000D4CF2B853C854DE050E0BE01695F7F4F9D
:101D8000CE0101960E941209CE0101960E94A00880
:101D90006B01CE0101960E947809C11444E0D4067B
:101DA00024F0CC24CA9443E0D42ED7FE02C0D12C18
:101DB000C12CD0925504C09254046D2D90E080E067
:101DC0000E9480096091540481E090E00E948009A3
:101DD00059CE26E030E050E040E0BE01695F7F4F21
:101DE000CE0101960E94120965EF72E0CE010196C4
:101DF0000E94AB08F82ECE0101960E947809FF20C0
:101E000019F12B853C8547E050E0BE01695F7F4FAB
:101E1000CE0101960E941209CE0101960E94A008EF
:101E20006B01CE0101960E94780985E6C816D1049F
:101E30001CF024E6C22ED12CD7FCC12CC0924D043C
:101E40006C2D89E090E0C2CF27E030E050E040E028
:101E5000BE01695F7F4FCE0101960E9412096CEFAF
:101E600072E0CE0101960E94AB08F82ECE010196D9
:101E70000E947809FF2019F12B853C8548E050E04D
:101E8000BE01695F7F4FCE0101960E941209CE010B
:101E900001960E94A0086B01CE0101960E9478096C
:101EA00095E6C916D1041CF094E6C92ED12CD7FCB6
:101EB000C12CC0924C046C2D8AE090E087CF24E0C6
:101EC00030E050E040E0BE01695F7F4FCE010196F7
:101ED0000E94120964E073E0CE0101960E94AB08F3
:101EE000F82ECE0101960E947809FF2009F447C020
:101EF0002B853C8545E050E0BE01695F7F4FCE01F8
:101F000001960E941209CE0101960E94A0086B0161
:101F1000CE0101960E947809C11424E0D20624F073
:101F2000CC24CA9483E0D82ED7FE02C0D12CC12C79
:101F3000D0925004C0924F046D2D82E090E00E9438
:101F4000800960914F0483E090E00E948009209115
:101F50004F043091500440E355E7249FC001259F72
:101F6000900D349F900D1124B0E0A0E080934604C2
:101F700090934704A0934804B093490483CD69E04B
:101F800073E0CE0107960E94AB088111BCC063E1EB
:101F900073E0CE0107960E94AB088111B4C06CE1DA
:101FA00073E0CE0107960E94AB088111D0C068E2B1
:101FB00073E0CE0107960E94AB088111C8C063E3AD
:101FC00073E0CE0107960E94AB088111E4C06EE376
:101FD00073E0CE0107960E94AB088111DCC068E473
:101FE00073E0CE0107960E94AB088111F4C065E54D
:101FF00073E0CE0107960E94AB088111ECC061E648
:1020000073E0CE0107960E94AB088111E9C061E739
:1020100073E0CE0107960E94AB088111E1C060E831
:1020200073E0CE0107960E94AB088111DFC061E921
:1020300073E0CE0107960E94AB088111D7C061EA18
:1020400073E0CE0107960E94AB088111D3C06BEA02
:1020500073E0CE0107960E94AB088111CBC064EB00
:1020600073E0CE0107960E94AB088111D0C06EEBE1
:1020700073E0CE0107960E94AB088111C8C067ECDF
:1020800073E0CE0107960E94AB088111CBC062EDD0
:1020900073E0CE0107960E94AB088111C3C06CEDBE
:1020A00073E0CE0107960E94AB088111BFC067EEB6
:1020B00073E0CE0107960E94AB088111B7C061EFB3
:1020C00073E0CE0107960E94AB088111B3C069EF9F
:1020D00073E0CE0107960E94AB088111ABC060E0AF
:1020E00074E0CE0107960E94AB08811109C069E037
:1020F00074E0CE0107960E94AB08882309F40FCE46
:1021000010924504BFCC80910201909103018D7F14
:102110000197B1F4109201011092000160E083E098
:102120000E94090460E082E00E94090464EF71E00B
:1021300080E090E00E94AA048AE990E00E9484096D
:1021400082E090E09093030180930201E8CD8091BA
:102150000201909103018D7F892BB1F4309201012E
:102160002092000160E083E00E94090460E082E0C8
:102170000E94090464EF71E080E090E00E94AA04EC
:102180008AE990E00E94840943E050E05093030103
:1021900040930201C4CD60E083E00E94090460E046
:1021A00082E00E94090460E084E00E9409048091BA
:1021B0000201909103018330910529F430920301CB
:1021C000209202015FCC029709F05CCC10920301CF
:1021D0001092020157CC309201012092000152CCA2
:1021E00010934E0461E084E090E0F0CD10924E0434
:1021F00060E0F9CF10934B0461E085E090E00E942D
:10220000800960914B0486E00E9409043BCC109346
:102210004A0461E086E090E00E94800960914A04EF
:1022200087E0F2CF10924B0460E0E7CF10924A04AF
:1022300060E0F0CF1093450425CC80E10E94730448
:10224000813293400CF180910201909103018D7FC6
:102250000197A1F410920101109200011092510413
:1022600060E083E00E94090460E082E00E940904CB
:1022700064EF71E080E090E00E94AA0482E090E0C8
:1022800090930301809302018FE00E9473048132D6
:1022900093400CF180910201909103018D7F892B75
:1022A000A1F430920101209200011092510460E0EB
:1022B00083E00E94090460E082E00E94090464EF68
:1022C00071E080E090E00E94AA0443E050E0509367
:1022D00003014093020180914E04813009F085C1D1
:1022E00086E095E00E94D3064B015C0186E095E014
:1022F0000E9458062B013C0183EF94E00E94D30614
:102300006B017C0183EF94E00E9458066D877E8705
:102310008F87988B10914B04A5019401C501B401DE
:102320000E94201681116DC0A3019201C301B20168
:102330000E942016811165C0111126C060914D04C4
:1023400070E090E080E00E94A3139B01AC01C50106
:10235000B4010E941B1687FD04C061E086E00E9464
:10236000090460914C0470E090E080E00E94A313A7
:102370009B01AC01C501B4010E949C13181624F006
:1023800060E086E00E94090410914A04A7019601CA
:10239000C701B6010E942016811137C02D853E85E8
:1023A0004F855889CA01B9010E94201681112DC09C
:1023B00011112DC060914D0470E090E080E00E940A
:1023C000A3139B01AC01C701B6010E941B1687FD38
:1023D00004C061E087E00E94090460914C0470E051
:1023E00090E080E00E94A3139B01AC01C701B601FD
:1023F0000E949C1318165CF060E087E00E940904BC
:1024000006C0112309F4BCCFBFCF1123A9F310914B
:10241000510461E0111105C080914504811101C092
:1024200060E085E00E94090481E10E94730420912C
:102430005204309153042817390778F111112DC037
:102440008091000190910101892B39F18091020165
:10245000909103018D7F019701F181E194E00E9449
:102460009C0781E10E9473040E94C80783E294E004
:102470000E949C0780915204909153040E949E07F1
:1024800081E0809351040E94DC04609341047093C6
:10249000420480934304909344040E94DC04C0905F
:1024A0004104D0904204E0904304F09044046C193D
:1024B0007D098E099F09C0904604D0904704E090A2
:1024C0004804F0904904C616D706E806F90690F4C9
:1024D00080915104813071F41092510482E090E0B7
:1024E000909301018093000143E050E05093030179
:1024F0004093020181E10E947304E0900201F09098
:10250000030120915204309153042817390770F0C9
:102510008091000190910101019741F451E0E5168D
:10252000F10421F4109201011092000181E10E9456
:10253000730420915404309155042817390738F555
:102540008091000190910101019709F1E894E1F86F
:10255000EF28E9F088E294E00E949C0781E10E9464
:1025600073040E94C80783E294E00E949C07809154
:102570005404909155040E949E0782E090E090934D
:10258000010180930001909303018093020181E196
:102590000E94730420910201309103014091540480
:1025A000509155044817590728F5809100019091E2
:1025B0000101892BF9F421153105E1F43092010173
:1025C000209200018DE00E94E003892B21F060E061
:1025D00083E00E9409048BE00E94E003892BA9F0AC
:1025E00060E082E00E94090410C060E086E00E9482
:1025F000090402CF2130310531F120F322303105B9
:1026000089F02330310509F441C080E090E0892B46
:1026100009F418C90E941403882309F413C90E94FD
:10262000000010C960E084E00E94090461E083E0DA
:102630000E94090461E082E00E94090410920301F3
:1026400010920201E2CF8CE00E94E003892B21F07E
:1026500060E083E00E9409048AE00E94E003892B85
:1026600021F060E082E00E9409048CE00E94E00317
:10267000892B59F28AE00E94E003892B31F260E055
:1026800084E00E94090410925104BFCF61E084E00D
:102690000E94090461E083E00E94090461E082E095
:1026A0000E9409043092030120920201AECF1F93D1
:1026B000FC0199278827BC01E89411911032E9F3B5
:1026C000193010F01E30C8F31B3251F01D3249F49E
:1026D000689406C00E948713610F711D811D911DB2
:1026E000119110531A30B0F33EF490958095709587
:1026F00061957F4F8F4F9F4F1F910895FC0105906B
:102700000020E9F7809590958E0F9F1F0895592F0F
:10271000482F372F262F660F771F881F991F660FA8
:10272000771F881F991F620F731F841F951F660FE5
:10273000771F881F991F08950E94DE1308F481E017
:102740000895E89409C097FB3EF4909580957095A4
:1027500061957F4F8F4F9F4F9923A9F0F92F96E9ED
:10276000BB279395F695879577956795B795F11162
:10277000F8CFFAF4BB0F11F460FF1BC06F5F7F4FFF
:102780008F4F9F4F16C0882311F096E911C0772311
:1027900021F09EE8872F762F05C0662371F096E81A
:1027A000862F70E060E02AF09A95660F771F881FE9
:1027B000DAF7880F9695879597F90895990F00088D
:1027C000550FAA0BE0E8FEEF16161706E807F90703
:1027D000C0F012161306E407F50798F0621B730B9E
:1027E000840B950B39F40A2661F0232B242B252B1F
:1027F00021F408950A2609F4A140A6958FEF811DC2
:10280000811D08950E9415140C9486140E9478145A
:1028100038F00E947F1420F0952311F00C946F146F
:102820000C94751411240C94BA140E94971470F32C
:10283000959FC1F3950F50E0551F629FF001729F65
:10284000BB27F00DB11D639FAA27F00DB11DAA1F74
:10285000649F6627B00DA11D661F829F2227B00DC1
:10286000A11D621F739FB00DA11D621F839FA00D4C
:10287000611D221F749F3327A00D611D231F849F9C
:10288000600D211D822F762F6A2F11249F575040F3
:102890009AF0F1F088234AF0EE0FFF1FBB1F661F6E
:1028A000771F881F91505040A9F79E3F510580F037
:1028B0000C946F140C94BA145F3FE4F3983ED4F375
:1028C000869577956795B795F795E7959F5FC1F7DB
:1028D000FE2B880F911D9695879597F9089597F986
:1028E0009F6780E870E060E008959FEF80EC0895B6
:1028F00000240A94161617061806090608950024DF
:102900000A9412161306140605060895092E039458
:10291000000C11F4882352F0BB0F40F4BF2B11F4CC
:1029200060FF04C06F5F7F4F8F4F9F4F089557FD2B
:102930009058440F551F59F05F3F71F04795880F2D
:1029400097FB991F61F09F3F79F0879508951216C4
:1029500013061406551FF2CF4695F1DF08C0161670
:1029600017061806991FF1CF869571056105089421
:102970000895E894BB2766277727CB0197F9089538
:10298000F999FECF92BD81BDF89A992780B5089537
:10299000262FF999FECF1FBA92BD81BD20BD0FB67B
:1029A000F894FA9AF99A0FBE019608952F923F92E1
:1029B0004F925F926F927F928F929F92AF92BF924F
:1029C000CF92DF92EF92FF920F931F93CF93DF93FB
:1029D000CDB7DEB7CA1BDB0B0FB6F894DEBF0FBE58
:1029E000CDBF09942A88398848885F846E847D84A5
:1029F0008C849B84AA84B984C884DF80EE80FD80A7
:102A00000C811B81AA81B981CE0FD11D0FB6F8941C
:102A1000DEBF0FBECDBFED0108955058BB27AA27DA
:102A20000E9425150C9486140E94781438F00E9498
:102A30007F1420F039F49F3F19F426F40C94751498
:102A40000EF4E095E7FB0C946F14E92F0E949714A5
:102A500058F3BA17620773078407950720F079F4D3
:102A6000A6F50C94B9140EF4E0950B2EBA2FA02DF8
:102A70000B01B90190010C01CA01A0011124FF272B
:102A8000591B99F0593F50F4503E68F11A16F04026
:102A9000A22F232F342F4427585FF3CF4695379525
:102AA0002795A795F0405395C9F77EF41F16BA0BEA
:102AB000620B730B840BBAF09150A1F0FF0FBB1F98
:102AC000661F771F881FC2F70EC0BA0F621F731FE1
:102AD000841F48F4879577956795B795F7959E3F3E
:102AE00008F0B0CF9395880F08F09927EE0F9795CF
:102AF000879508950E948E150C9486140E947F1469
:102B000058F00E94781440F029F45F3F29F00C94AB
:102B10006F1451110C94BA140C9475140E949714EC
:102B200068F39923B1F3552391F3951B550BBB27FC
:102B3000AA2762177307840738F09F5F5F4F220F41
:102B4000331F441FAA1FA9F335D00E2E3AF0E0E838
:102B500032D091505040E695001CCAF72BD0FE2F82
:102B600029D0660F771F881FBB1F26173707480716
:102B7000AB07B0E809F0BB0B802DBF01FF279358CE
:102B80005F4F3AF09E3F510578F00C946F140C940F
:102B9000BA145F3FE4F3983ED4F386957795679532
:102BA000B795F7959F5FC9F7880F911D9695879503
:102BB00097F90895E1E0660F771F881FBB1F621722
:102BC00073078407BA0720F0621B730B840BBA0BE0
:102BD000EE1F88F7E09508950E949F1488F09F5794
:102BE00098F0B92F9927B751B0F0E1F0660F771F31
:102BF000881F991F1AF0BA95C9F714C0B13091F027
:102C00000E94B914B1E008950C94B914672F782F7D
:102C10008827B85F39F0B93FCCF3869577956795EB
:102C2000B395D9F73EF490958095709561957F4F57
:102C30008F4F9F4F08950E94DE1308F48FEF089581
:102C40000E94DE13880B990B0895A1E21A2EAA1B8D
:102C5000BB1BFD010DC0AA1FBB1FEE1FFF1FA2174C
:102C6000B307E407F50720F0A21BB30BE40BF50B49
:102C7000661F771F881F991F1A9469F760957095D2
:102C8000809590959B01AC01BD01CF010895EE0F99
:102C9000FF1F0590F491E02D09940F931F93CF939C
:102CA000DF938230910510F482E090E0E0911B0503
:102CB000F0911C0530E020E0B0E0A0E0309799F4FE
:102CC0002115310509F44AC0281B390B2430310580
:102CD000D8F58A819B816115710589F1FB01938388
:102CE0008283FE0111C04081518102811381481706
:102CF0005907E0F04817590799F4109761F01296B8
:102D00000C93129713961C933296CF01DF91CF91BB
:102D10001F910F91089500931B0510931C05F4CF8C
:102D20002115310551F04217530738F0A901DB0195
:102D30009A01BD01DF01F801C1CFEF01F9CF9093F6
:102D40001C0580931B05CDCFFE01E20FF31F81937D
:102D500091932250310939832883D7CF20911905C7
:102D600030911A05232B41F420910601309107017F
:102D700030931A0520931905209104013091050123
:102D80002115310541F42DB73EB74091080150910E
:102D90000901241B350BE0911905F0911A05E21782
:102DA000F307A0F42E1B3F0B2817390778F0AC016E
:102DB0004E5F5F4F2417350748F04E0F5F1F50934B
:102DC0001A0540931905819391939FCFF0E0E0E0BD
:102DD0009CCFCF93DF930097E9F0FC0132971382E9
:102DE0001282A0911B05B0911C05ED0130E020E09E
:102DF0001097A1F420813181820F931F2091190532
:102E000030911A052817390709F061C0F0931A05A7
:102E1000E0931905DF91CF910895EA01CE17DF07FE
:102E2000E8F54A815B819E0141155105B1F7E90141
:102E3000FB83EA8349915991C40FD51FEC17FD0715
:102E400061F4808191810296840F951FE901998335
:102E50008883828193819B838A83F0E0E0E01296ED
:102E60008D919C9113970097B9F52D913C911197F5
:102E7000CD010296820F931F2091190530911A05FA
:102E80002817390739F6309751F510921C05109222
:102E90001B05B0931A05A0931905BCCFD383C28339
:102EA00040815181840F951FC817D90761F44E5F87
:102EB0005F4F88819981480F591F518340838A81D0
:102EC0009B81938382832115310509F0B0CFF09364
:102ED0001C05E0931B059ECFFD01DC01C0CF1382D2
:102EE0001282D7CFB0E0A0E0E8E7F7E10C94D81465
:102EF0008C01009751F4CB010E944D168C01C80142
:102F0000CDB7DEB7E0E10C94F414FC01E60FF71F37
:102F10009C0122503109E217F30708F49DC0D90142
:102F2000CD91DC911197C617D70798F0C530D10520
:102F300030F3CE0104978617970708F3C61BD70B0B
:102F40002297C193D1936D937C93CF010E94E91690
:102F5000D6CF5B01AC1ABD0A4C018C0E9D1EA09110
:102F60001B05B0911C05512C412CF12CE12C109724
:102F700031F58091190590911A058815990509F088
:102F80005CC04616570608F058C080910401909125
:102F90000501009741F48DB79EB74091080150910B
:102FA0000901841B950BE817F90708F055C0F09349
:102FB0001A05E0931905F90171836083A0CF8D9103
:102FC0009C91119712966C90129713967C90139780
:102FD000A815B90559F56C0142E0C40ED11CCA14FC
:102FE000DB0420F1AC014A195B09DA01129615974E
:102FF00080F06282738251834083D9016D937C9308
:10300000E114F10471F0D7011396FC93EE9312973B
:1030100076CF22968C0F9D1FF90191838083F30157
:10302000EFCFF0931C05E0931B0569CF48165906B6
:1030300008F42C017D01D3019ACFCB010E944D16DB
:103040007C01009749F0AE01B8010E942F18C80119
:103050000E94E916870153CF10E000E050CFFB013A
:10306000DC0102C001900D9241505040D8F7089504
:10307000FB01DC018D91019080190110D9F3990BAE
:103080000895FB01DC0101900D920020E1F7089505
:10309000F894FFCF0200020000001D058000000030
:1030A00000004A03AA02D70297030803E602FA02C5
:1030B0000D0A006E616E00696E66006F76660053E1
:1030C000746172740068656C700A0068656C7000E9
:1030D00073656E736F720A0073656E736F72006949
:1030E0006E666F0A00696E666F00696E74656E7356
:1030F00069747920555000496E74656E73697479EE
:10310000206E6F773A2000496E74656E736974792A
:103110002055503A202000496E74656E73697479A9
:1031200020444F574E3A0053746174653A20202072
:1031300020202020202000474F5F555000474F5F40
:10314000444F574E00537461746520425554544F98
:103150004E3A202000425F555000425F444F574E88
:1031600000425F4E4F4E45004C45443A20202020FF
:10317000202020202020200054696D652073657474
:103180003A202020202020002068616C66206D6994
:103190006E6974730054656D7065726174757265E3
:1031A00020313A200020C2B0430048756D6964693F
:1031B000747920202020313A200020250054656DAC
:1031C000706572617475726520323A200048756DC1
:1031D000696469747920202020323A2000446577A0
:1031E00020706F696E7420313A202020004465778A
:1031F00020706F696E7420323A2020200048756D6F
:103200006964697479204D41583A20200048756DF1
:1032100069646974792053544F503A200054656DA5
:1032200070657261747572653A2020204F464600C1
:103230004D616E756C2046756E20313A2020204F0E
:103240004E004D616E756C2046756E20313A20201F
:10325000204F4646004D616E756C2046756E2032DB
:103260003A2020204F4E004D616E756C2046756EE1
:1032700020323A2020204F464600696E74656E73F6
:1032800069747920444F574E0068756D4D61780020
:1032900068756D53746F700074696D65006D6F743F
:1032A0006F722075700A006D6F746F7220757000F8
:1032B0006D6F746F7220646F776E0A006D6F746F3C
:1032C0007220646F776E006D6F746F7220656E642C
:1032D0000A006D6F746F7220656E6400627574749D
:1032E0006F6E206E756C6C0A00627574746F6E2060
:1032F0006E756C6C0074656D706572617475726565
:10330000206F6E0A0074656D706572617475726508
:10331000206F6E0074656D706572617475726520E2
:103320006F66660A0074656D7065726174757265AA
:10333000206F66660066616E2031206F6E0A00663F
:10334000616E2031206F6E0066616E2032206F6EDC
:103350000A0066616E2032206F6E0066616E203159
:10336000206F66660A0066616E2031206F66660017
:1033700066616E2032206F66660A0066616E2032DA
:10338000206F6666006C6564206F6E0A006C656471
:10339000206F6E006C6564206F66660A006C656461
:1033A000206F666600494E4E544552555020474F97
:1033B00020444F574E2000203C3D2000494E4E54A3
:0C33C0004552555020474F20555020002A
:107E0000112484B714BE81FFF0D085E080938100F7
:107E100082E08093C00088E18093C10086E0809377
:107E2000C20080E18093C4008EE0C9D0259A86E02C
:107E300020E33CEF91E0309385002093840096BBD3
:107E4000B09BFECF1D9AA8958150A9F7CC24DD24C4
:107E500088248394B5E0AB2EA1E19A2EF3E0BF2EE7
:107E6000A2D0813461F49FD0082FAFD0023811F036
:107E7000013811F484E001C083E08DD089C08234E0
:107E800011F484E103C0853419F485E0A6D080C0E4
:107E9000853579F488D0E82EFF2485D0082F10E0AE
:107EA000102F00270E291F29000F111F8ED06801E7
:107EB0006FC0863521F484E090D080E0DECF843638
:107EC00009F040C070D06FD0082F6DD080E0C81688
:107ED00080E7D80618F4F601B7BEE895C0E0D1E017
:107EE00062D089930C17E1F7F0E0CF16F0E7DF06D8
:107EF00018F0F601B7BEE89568D007B600FCFDCFD4
:107F0000A601A0E0B1E02C9130E011968C91119780
:107F100090E0982F8827822B932B1296FA010C0160
:107F200087BEE89511244E5F5F4FF1E0A038BF0790
:107F300051F7F601A7BEE89507B600FCFDCF97BE46
:107F4000E89526C08437B1F42ED02DD0F82E2BD052
:107F50003CD0F601EF2C8F010F5F1F4F84911BD097
:107F6000EA94F801C1F70894C11CD11CFA94CF0C13
:107F7000D11C0EC0853739F428D08EE10CD085E9AC
:107F80000AD08FE07ACF813511F488E018D01DD067
:107F900080E101D065CF982F8091C00085FFFCCF94
:107FA0009093C60008958091C00087FFFCCF809118
:107FB000C00084FD01C0A8958091C6000895E0E648
:107FC000F0E098E1908380830895EDDF803219F02E
:107FD00088E0F5DFFFCF84E1DECF1F93182FE3DFCA
:107FE0001150E9F7F2DF1F91089580E0E8DFEE27F6
:047FF000FF270994CA
:027FFE00040479
:00000001FF
